{
  "contractName": "Campaign",
  "abi": [
    {
      "inputs": [
        {
          "internalType": "address payable",
          "name": "beneficiary_",
          "type": "address"
        },
        {
          "internalType": "uint256",
          "name": "_target",
          "type": "uint256"
        },
        {
          "internalType": "uint64",
          "name": "_endTime",
          "type": "uint64"
        }
      ],
      "stateMutability": "nonpayable",
      "type": "constructor"
    },
    {
      "anonymous": false,
      "inputs": [
        {
          "indexed": true,
          "internalType": "address",
          "name": "payee",
          "type": "address"
        },
        {
          "indexed": false,
          "internalType": "uint256",
          "name": "weiAmount",
          "type": "uint256"
        }
      ],
      "name": "Deposited",
      "type": "event"
    },
    {
      "anonymous": false,
      "inputs": [
        {
          "indexed": true,
          "internalType": "address",
          "name": "previousOwner",
          "type": "address"
        },
        {
          "indexed": true,
          "internalType": "address",
          "name": "newOwner",
          "type": "address"
        }
      ],
      "name": "OwnershipTransferred",
      "type": "event"
    },
    {
      "anonymous": false,
      "inputs": [],
      "name": "RefundsClosed",
      "type": "event"
    },
    {
      "anonymous": false,
      "inputs": [],
      "name": "RefundsEnabled",
      "type": "event"
    },
    {
      "anonymous": false,
      "inputs": [
        {
          "indexed": true,
          "internalType": "address",
          "name": "payee",
          "type": "address"
        },
        {
          "indexed": false,
          "internalType": "uint256",
          "name": "weiAmount",
          "type": "uint256"
        }
      ],
      "name": "Withdrawn",
      "type": "event"
    },
    {
      "inputs": [],
      "name": "beneficiary",
      "outputs": [
        {
          "internalType": "address payable",
          "name": "",
          "type": "address"
        }
      ],
      "stateMutability": "view",
      "type": "function"
    },
    {
      "inputs": [],
      "name": "beneficiaryWithdraw",
      "outputs": [],
      "stateMutability": "nonpayable",
      "type": "function"
    },
    {
      "inputs": [],
      "name": "close",
      "outputs": [],
      "stateMutability": "nonpayable",
      "type": "function"
    },
    {
      "inputs": [
        {
          "internalType": "address",
          "name": "payee",
          "type": "address"
        }
      ],
      "name": "depositsOf",
      "outputs": [
        {
          "internalType": "uint256",
          "name": "",
          "type": "uint256"
        }
      ],
      "stateMutability": "view",
      "type": "function"
    },
    {
      "inputs": [],
      "name": "enableRefunds",
      "outputs": [],
      "stateMutability": "nonpayable",
      "type": "function"
    },
    {
      "inputs": [],
      "name": "owner",
      "outputs": [
        {
          "internalType": "address",
          "name": "",
          "type": "address"
        }
      ],
      "stateMutability": "view",
      "type": "function"
    },
    {
      "inputs": [],
      "name": "renounceOwnership",
      "outputs": [],
      "stateMutability": "nonpayable",
      "type": "function"
    },
    {
      "inputs": [],
      "name": "state",
      "outputs": [
        {
          "internalType": "enum RefundEscrow.State",
          "name": "",
          "type": "uint8"
        }
      ],
      "stateMutability": "view",
      "type": "function"
    },
    {
      "inputs": [
        {
          "internalType": "address",
          "name": "newOwner",
          "type": "address"
        }
      ],
      "name": "transferOwnership",
      "outputs": [],
      "stateMutability": "nonpayable",
      "type": "function"
    },
    {
      "inputs": [
        {
          "internalType": "address payable",
          "name": "payee",
          "type": "address"
        }
      ],
      "name": "withdraw",
      "outputs": [],
      "stateMutability": "nonpayable",
      "type": "function"
    },
    {
      "inputs": [
        {
          "internalType": "address",
          "name": "",
          "type": "address"
        }
      ],
      "name": "withdrawalAllowed",
      "outputs": [
        {
          "internalType": "bool",
          "name": "",
          "type": "bool"
        }
      ],
      "stateMutability": "view",
      "type": "function"
    },
    {
      "inputs": [
        {
          "internalType": "address",
          "name": "refundee",
          "type": "address"
        }
      ],
      "name": "deposit",
      "outputs": [],
      "stateMutability": "payable",
      "type": "function"
    },
    {
      "inputs": [],
      "name": "beforeFinish",
      "outputs": [
        {
          "internalType": "bool",
          "name": "",
          "type": "bool"
        }
      ],
      "stateMutability": "view",
      "type": "function"
    },
    {
      "inputs": [],
      "name": "targetReached",
      "outputs": [
        {
          "internalType": "bool",
          "name": "",
          "type": "bool"
        }
      ],
      "stateMutability": "view",
      "type": "function"
    }
  ],
  "bytecode": "0x60a06040523480156200001157600080fd5b5060405162001cf238038062001cf283398181016040528101906200003791906200026b565b8260006200004a6200021e60201b60201c565b9050806000806101000a81548173ffffffffffffffffffffffffffffffffffffffff021916908373ffffffffffffffffffffffffffffffffffffffff1602179055508073ffffffffffffffffffffffffffffffffffffffff16600073ffffffffffffffffffffffffffffffffffffffff167f8be0079c531659141344cd1fd0a4f28419497f9722a3daafe3b4186f6b6457e060405160405180910390a350600073ffffffffffffffffffffffffffffffffffffffff168173ffffffffffffffffffffffffffffffffffffffff1614156200015b576040517f08c379a00000000000000000000000000000000000000000000000000000000081526004016200015290620002e8565b60405180910390fd5b8073ffffffffffffffffffffffffffffffffffffffff1660808173ffffffffffffffffffffffffffffffffffffffff1660601b815250506000600260006101000a81548160ff02191690836002811115620001df577f4e487b7100000000000000000000000000000000000000000000000000000000600052602160045260246000fd5b0217905550508160038190555080600460006101000a81548167ffffffffffffffff021916908367ffffffffffffffff1602179055505050506200040a565b600033905090565b6000815190506200023781620003bc565b92915050565b6000815190506200024e81620003d6565b92915050565b6000815190506200026581620003f0565b92915050565b6000806000606084860312156200028157600080fd5b6000620002918682870162000226565b9350506020620002a4868287016200023d565b9250506040620002b78682870162000254565b9150509250925092565b6000620002d0602d836200030a565b9150620002dd826200036d565b604082019050919050565b600060208201905081810360008301526200030381620002c1565b9050919050565b600082825260208201905092915050565b600062000328826200032f565b9050919050565b600073ffffffffffffffffffffffffffffffffffffffff82169050919050565b6000819050919050565b600067ffffffffffffffff82169050919050565b7f526566756e64457363726f773a2062656e65666963696172792069732074686560008201527f207a65726f206164647265737300000000000000000000000000000000000000602082015250565b620003c7816200031b565b8114620003d357600080fd5b50565b620003e1816200034f565b8114620003ed57600080fd5b50565b620003fb8162000359565b81146200040757600080fd5b50565b60805160601c6118c962000429600039600061030101526118c96000f3fe6080604052600436106100dd5760003560e01c80638da5cb5b1161007f578063db9618e611610059578063db9618e614610250578063e3a9db1a1461027b578063f2fde38b146102b8578063f340fa01146102e1576100dd565b80638da5cb5b146101e35780639af6549a1461020e578063c19d93fb14610225576100dd565b806351cff8d9116100bb57806351cff8d91461014f578063685ca19414610178578063715018a6146101b55780638c52dc41146101cc576100dd565b806338af3eed146100e25780633bde5ba81461010d57806343d726d614610138575b600080fd5b3480156100ee57600080fd5b506100f76102fd565b60405161010491906112f8565b60405180910390f35b34801561011957600080fd5b50610122610325565b60405161012f9190611313565b60405180910390f35b34801561014457600080fd5b5061014d610332565b005b34801561015b57600080fd5b50610176600480360381019061017191906110f6565b6104e6565b005b34801561018457600080fd5b5061019f600480360381019061019a91906110cd565b61053a565b6040516101ac9190611313565b60405180910390f35b3480156101c157600080fd5b506101ca6105be565b005b3480156101d857600080fd5b506101e16106f8565b005b3480156101ef57600080fd5b506101f86108ad565b60405161020591906112dd565b60405180910390f35b34801561021a57600080fd5b506102236108d6565b005b34801561023157600080fd5b5061023a6109c1565b604051610247919061132e565b60405180910390f35b34801561025c57600080fd5b506102656109d8565b6040516102729190611313565b60405180910390f35b34801561028757600080fd5b506102a2600480360381019061029d91906110cd565b610a02565b6040516102af9190611469565b60405180910390f35b3480156102c457600080fd5b506102df60048036038101906102da91906110cd565b610a4b565b005b6102fb60048036038101906102f691906110cd565b610bf4565b005b60007f0000000000000000000000000000000000000000000000000000000000000000905090565b6000600354471015905090565b61033a610c00565b73ffffffffffffffffffffffffffffffffffffffff166103586108ad565b73ffffffffffffffffffffffffffffffffffffffff16146103ae576040517f08c379a00000000000000000000000000000000000000000000000000000000081526004016103a590611429565b60405180910390fd5b600060028111156103e8577f4e487b7100000000000000000000000000000000000000000000000000000000600052602160045260246000fd5b6103f06109c1565b6002811115610428577f4e487b7100000000000000000000000000000000000000000000000000000000600052602160045260246000fd5b14610468576040517f08c379a000000000000000000000000000000000000000000000000000000000815260040161045f90611409565b60405180910390fd5b60028060006101000a81548160ff021916908360028111156104b3577f4e487b7100000000000000000000000000000000000000000000000000000000600052602160045260246000fd5b02179055507f088672c3a6e342f7cd94a65ba63b79df24a8973927b4d05d803c44bbf787d12f60405160405180910390a1565b6104ef8161053a565b61052e576040517f08c379a0000000000000000000000000000000000000000000000000000000008152600401610525906113e9565b60405180910390fd5b61053781610c08565b50565b600060016002811115610576577f4e487b7100000000000000000000000000000000000000000000000000000000600052602160045260246000fd5b61057e6109c1565b60028111156105b6577f4e487b7100000000000000000000000000000000000000000000000000000000600052602160045260246000fd5b149050919050565b6105c6610c00565b73ffffffffffffffffffffffffffffffffffffffff166105e46108ad565b73ffffffffffffffffffffffffffffffffffffffff161461063a576040517f08c379a000000000000000000000000000000000000000000000000000000000815260040161063190611429565b60405180910390fd5b600073ffffffffffffffffffffffffffffffffffffffff1660008054906101000a900473ffffffffffffffffffffffffffffffffffffffff1673ffffffffffffffffffffffffffffffffffffffff167f8be0079c531659141344cd1fd0a4f28419497f9722a3daafe3b4186f6b6457e060405160405180910390a360008060006101000a81548173ffffffffffffffffffffffffffffffffffffffff021916908373ffffffffffffffffffffffffffffffffffffffff160217905550565b610700610c00565b73ffffffffffffffffffffffffffffffffffffffff1661071e6108ad565b73ffffffffffffffffffffffffffffffffffffffff1614610774576040517f08c379a000000000000000000000000000000000000000000000000000000000815260040161076b90611429565b60405180910390fd5b600060028111156107ae577f4e487b7100000000000000000000000000000000000000000000000000000000600052602160045260246000fd5b6107b66109c1565b60028111156107ee577f4e487b7100000000000000000000000000000000000000000000000000000000600052602160045260246000fd5b1461082e576040517f08c379a000000000000000000000000000000000000000000000000000000000815260040161082590611449565b60405180910390fd5b6001600260006101000a81548160ff0219169083600281111561087a577f4e487b7100000000000000000000000000000000000000000000000000000000600052602160045260246000fd5b02179055507f599d8e5a83cffb867d051598c4d70e805d59802d8081c1c7d6dffc5b6aca2b8960405160405180910390a1565b60008060009054906101000a900473ffffffffffffffffffffffffffffffffffffffff16905090565b60028081111561090f577f4e487b7100000000000000000000000000000000000000000000000000000000600052602160045260246000fd5b6109176109c1565b600281111561094f577f4e487b7100000000000000000000000000000000000000000000000000000000600052602160045260246000fd5b1461098f576040517f08c379a000000000000000000000000000000000000000000000000000000000815260040161098690611349565b60405180910390fd5b6109bf4761099b6102fd565b73ffffffffffffffffffffffffffffffffffffffff16610d8890919063ffffffff16565b565b6000600260009054906101000a900460ff16905090565b6000600460009054906101000a900467ffffffffffffffff1667ffffffffffffffff164210905090565b6000600160008373ffffffffffffffffffffffffffffffffffffffff1673ffffffffffffffffffffffffffffffffffffffff168152602001908152602001600020549050919050565b610a53610c00565b73ffffffffffffffffffffffffffffffffffffffff16610a716108ad565b73ffffffffffffffffffffffffffffffffffffffff1614610ac7576040517f08c379a0000000000000000000000000000000000000000000000000000000008152600401610abe90611429565b60405180910390fd5b600073ffffffffffffffffffffffffffffffffffffffff168173ffffffffffffffffffffffffffffffffffffffff161415610b37576040517f08c379a0000000000000000000000000000000000000000000000000000000008152600401610b2e90611369565b60405180910390fd5b8073ffffffffffffffffffffffffffffffffffffffff1660008054906101000a900473ffffffffffffffffffffffffffffffffffffffff1673ffffffffffffffffffffffffffffffffffffffff167f8be0079c531659141344cd1fd0a4f28419497f9722a3daafe3b4186f6b6457e060405160405180910390a3806000806101000a81548173ffffffffffffffffffffffffffffffffffffffff021916908373ffffffffffffffffffffffffffffffffffffffff16021790555050565b610bfd81610e7c565b50565b600033905090565b610c10610c00565b73ffffffffffffffffffffffffffffffffffffffff16610c2e6108ad565b73ffffffffffffffffffffffffffffffffffffffff1614610c84576040517f08c379a0000000000000000000000000000000000000000000000000000000008152600401610c7b90611429565b60405180910390fd5b6000600160008373ffffffffffffffffffffffffffffffffffffffff1673ffffffffffffffffffffffffffffffffffffffff1681526020019081526020016000205490506000600160008473ffffffffffffffffffffffffffffffffffffffff1673ffffffffffffffffffffffffffffffffffffffff16815260200190815260200160002081905550610d36818373ffffffffffffffffffffffffffffffffffffffff16610d8890919063ffffffff16565b8173ffffffffffffffffffffffffffffffffffffffff167f7084f5476618d8e60b11ef0d7d3f06914655adb8793e28ff7f018d4c76d505d582604051610d7c9190611469565b60405180910390a25050565b80471015610dcb576040517f08c379a0000000000000000000000000000000000000000000000000000000008152600401610dc2906113a9565b60405180910390fd5b60008273ffffffffffffffffffffffffffffffffffffffff1682604051610df1906112c8565b60006040518083038185875af1925050503d8060008114610e2e576040519150601f19603f3d011682016040523d82523d6000602084013e610e33565b606091505b5050905080610e77576040517f08c379a0000000000000000000000000000000000000000000000000000000008152600401610e6e90611389565b60405180910390fd5b505050565b60006002811115610eb6577f4e487b7100000000000000000000000000000000000000000000000000000000600052602160045260246000fd5b610ebe6109c1565b6002811115610ef6577f4e487b7100000000000000000000000000000000000000000000000000000000600052602160045260246000fd5b14610f36576040517f08c379a0000000000000000000000000000000000000000000000000000000008152600401610f2d906113c9565b60405180910390fd5b610f3f81610f42565b50565b610f4a610c00565b73ffffffffffffffffffffffffffffffffffffffff16610f686108ad565b73ffffffffffffffffffffffffffffffffffffffff1614610fbe576040517f08c379a0000000000000000000000000000000000000000000000000000000008152600401610fb590611429565b60405180910390fd5b600034905080600160008473ffffffffffffffffffffffffffffffffffffffff1673ffffffffffffffffffffffffffffffffffffffff1681526020019081526020016000205461100e91906114a0565b600160008473ffffffffffffffffffffffffffffffffffffffff1673ffffffffffffffffffffffffffffffffffffffff168152602001908152602001600020819055508173ffffffffffffffffffffffffffffffffffffffff167f2da466a7b24304f47e87fa2e1e5a81b9831ce54fec19055ce277ca2f39ba42c4826040516110979190611469565b60405180910390a25050565b6000813590506110b281611865565b92915050565b6000813590506110c78161187c565b92915050565b6000602082840312156110df57600080fd5b60006110ed848285016110a3565b91505092915050565b60006020828403121561110857600080fd5b6000611116848285016110b8565b91505092915050565b61112881611508565b82525050565b611137816114f6565b82525050565b6111468161151a565b82525050565b61115581611563565b82525050565b600061116860388361148f565b9150611173826115d3565b604082019050919050565b600061118b60268361148f565b915061119682611622565b604082019050919050565b60006111ae603a8361148f565b91506111b982611671565b604082019050919050565b60006111d1601d8361148f565b91506111dc826116c0565b602082019050919050565b60006111f4602b8361148f565b91506111ff826116e9565b604082019050919050565b600061121760338361148f565b915061122282611738565b604082019050919050565b600061123a60298361148f565b915061124582611787565b604082019050919050565b600061125d60208361148f565b9150611268826117d6565b602082019050919050565b6000611280600083611484565b915061128b826117ff565b600082019050919050565b60006112a360328361148f565b91506112ae82611802565b604082019050919050565b6112c281611559565b82525050565b60006112d382611273565b9150819050919050565b60006020820190506112f2600083018461112e565b92915050565b600060208201905061130d600083018461111f565b92915050565b6000602082019050611328600083018461113d565b92915050565b6000602082019050611343600083018461114c565b92915050565b600060208201905081810360008301526113628161115b565b9050919050565b600060208201905081810360008301526113828161117e565b9050919050565b600060208201905081810360008301526113a2816111a1565b9050919050565b600060208201905081810360008301526113c2816111c4565b9050919050565b600060208201905081810360008301526113e2816111e7565b9050919050565b600060208201905081810360008301526114028161120a565b9050919050565b600060208201905081810360008301526114228161122d565b9050919050565b6000602082019050818103600083015261144281611250565b9050919050565b6000602082019050818103600083015261146281611296565b9050919050565b600060208201905061147e60008301846112b9565b92915050565b600081905092915050565b600082825260208201905092915050565b60006114ab82611559565b91506114b683611559565b9250827fffffffffffffffffffffffffffffffffffffffffffffffffffffffffffffffff038211156114eb576114ea611575565b5b828201905092915050565b600061150182611539565b9050919050565b600061151382611539565b9050919050565b60008115159050919050565b600081905061153482611851565b919050565b600073ffffffffffffffffffffffffffffffffffffffff82169050919050565b6000819050919050565b600061156e82611526565b9050919050565b7f4e487b7100000000000000000000000000000000000000000000000000000000600052601160045260246000fd5b7f4e487b7100000000000000000000000000000000000000000000000000000000600052602160045260246000fd5b7f526566756e64457363726f773a2062656e65666963696172792063616e206f6e60008201527f6c79207769746864726177207768696c6520636c6f7365640000000000000000602082015250565b7f4f776e61626c653a206e6577206f776e657220697320746865207a65726f206160008201527f6464726573730000000000000000000000000000000000000000000000000000602082015250565b7f416464726573733a20756e61626c6520746f2073656e642076616c75652c207260008201527f6563697069656e74206d61792068617665207265766572746564000000000000602082015250565b7f416464726573733a20696e73756666696369656e742062616c616e6365000000600082015250565b7f526566756e64457363726f773a2063616e206f6e6c79206465706f736974207760008201527f68696c6520616374697665000000000000000000000000000000000000000000602082015250565b7f436f6e646974696f6e616c457363726f773a207061796565206973206e6f742060008201527f616c6c6f77656420746f20776974686472617700000000000000000000000000602082015250565b7f526566756e64457363726f773a2063616e206f6e6c7920636c6f73652077686960008201527f6c65206163746976650000000000000000000000000000000000000000000000602082015250565b7f4f776e61626c653a2063616c6c6572206973206e6f7420746865206f776e6572600082015250565b50565b7f526566756e64457363726f773a2063616e206f6e6c7920656e61626c6520726560008201527f66756e6473207768696c65206163746976650000000000000000000000000000602082015250565b60038110611862576118616115a4565b5b50565b61186e816114f6565b811461187957600080fd5b50565b61188581611508565b811461189057600080fd5b5056fea2646970667358221220e6fc13a104814697fe55ea392dab437fcc328754824f9ca87e6728bc784ae1e964736f6c63430008040033",
  "immutableReferences": {
    "808": [
      {
        "length": 32,
        "start": 769
      }
    ]
  },
  "source": "// SPDX-License-Identifier: MIT\npragma solidity >=0.8.0 <0.9.0;\n\nimport \"@openzeppelin/contracts/utils/escrow/RefundEscrow.sol\";\n\ncontract Campaign is RefundEscrow {\n    uint fundraisingTarget;\n    uint64 endTime;\n    address payable _beneficiary;\n    RefundEscrow.State _state;\n    \n    /**\n     * @dev Constructor.\n     * @param beneficiary_ The beneficiary of the deposits.\n     */\n    constructor(address payable beneficiary_, uint _target, uint64 _endTime) RefundEscrow(beneficiary_){\n        fundraisingTarget = _target;\n        endTime = _endTime;\n    }\n\n    function deposit(address refundee) public payable virtual override {\n        super.deposit(refundee);\n    }\n    \n    function beforeFinish() public view returns (bool) {\n        return block.timestamp < endTime;\n    }\n    \n    function targetReached() public view returns (bool) {\n        return address(this).balance >= fundraisingTarget;\n    }\n\n    \n}",
  "sourcePath": "/home/drew/Documents/Projects/raise/src/truffleenv/contracts/Campaign.sol",
  "compiler": {
    "name": "solc",
    "version": "0.8.4+commit.c7e474f2.Emscripten.clang"
  },
  "schemaVersion": "3.4.1",
  "updatedAt": "2021-05-30T20:16:53.103Z",
  "devdoc": {
    "kind": "dev",
    "methods": {
      "beneficiary()": {
        "returns": {
          "_0": "The beneficiary of the escrow."
        }
      },
      "beneficiaryWithdraw()": {
        "details": "Withdraws the beneficiary's funds."
      },
      "close()": {
        "details": "Allows for the beneficiary to withdraw their funds, rejecting further deposits."
      },
      "constructor": {
        "details": "Constructor.",
        "params": {
          "beneficiary_": "The beneficiary of the deposits."
        }
      },
      "deposit(address)": {
        "details": "Stores funds that may later be refunded.",
        "params": {
          "refundee": "The address funds will be sent to if a refund occurs."
        }
      },
      "enableRefunds()": {
        "details": "Allows for refunds to take place, rejecting further deposits."
      },
      "owner()": {
        "details": "Returns the address of the current owner."
      },
      "renounceOwnership()": {
        "details": "Leaves the contract without owner. It will not be possible to call `onlyOwner` functions anymore. Can only be called by the current owner. NOTE: Renouncing ownership will leave the contract without an owner, thereby removing any functionality that is only available to the owner."
      },
      "state()": {
        "returns": {
          "_0": "The current state of the escrow."
        }
      },
      "transferOwnership(address)": {
        "details": "Transfers ownership of the contract to a new account (`newOwner`). Can only be called by the current owner."
      },
      "withdraw(address)": {
        "details": "Withdraw accumulated balance for a payee, forwarding all gas to the recipient. WARNING: Forwarding all gas opens the door to reentrancy vulnerabilities. Make sure you trust the recipient, or are either following the checks-effects-interactions pattern or using {ReentrancyGuard}.",
        "params": {
          "payee": "The address whose funds will be withdrawn and transferred to."
        }
      },
      "withdrawalAllowed(address)": {
        "details": "Returns whether refundees can withdraw their deposits (be refunded). The overridden function receives a 'payee' argument, but we ignore it here since the condition is global, not per-payee."
      }
    },
    "version": 1
  },
  "userdoc": {
    "kind": "user",
    "methods": {},
    "version": 1
  }
}