{
  "contractName": "Raise",
  "abi": [
    {
      "anonymous": false,
      "inputs": [
        {
          "indexed": false,
          "internalType": "address payable",
          "name": "campaignContract",
          "type": "address"
        },
        {
          "indexed": false,
          "internalType": "string",
          "name": "name",
          "type": "string"
        }
      ],
      "name": "CampaignLaunched",
      "type": "event"
    },
    {
      "inputs": [
        {
          "internalType": "string",
          "name": "_name",
          "type": "string"
        }
      ],
      "name": "createCampaign",
      "outputs": [],
      "stateMutability": "nonpayable",
      "type": "function"
    },
    {
      "inputs": [
        {
          "internalType": "address payable",
          "name": "_campaign",
          "type": "address"
        },
        {
          "internalType": "address payable",
          "name": "_refundee",
          "type": "address"
        }
      ],
      "name": "depositToCampaign",
      "outputs": [],
      "stateMutability": "payable",
      "type": "function",
      "payable": true
    }
  ],
  "bytecode": "0x608060405234801561001057600080fd5b506120a5806100206000396000f3fe6080604052600436106200002c5760003560e01c8063cac4baf71462000031578063fdbf9ff11462000051575b600080fd5b6200004f600480360381019062000049919062000205565b6200007f565b005b3480156200005e57600080fd5b506200007d600480360381019062000077919062000246565b620000f2565b005b8173ffffffffffffffffffffffffffffffffffffffff1663f340fa01826040518263ffffffff1660e01b8152600401620000ba9190620002ee565b600060405180830381600087803b158015620000d557600080fd5b505af1158015620000ea573d6000803e3d6000fd5b505050505050565b60003360405162000103906200016e565b6200010f91906200030b565b604051809103906000f0801580156200012c573d6000803e3d6000fd5b5090507f782ec3b2ed255427ebd1660448bc74f6aaefe0d71cccc4988339c9411498b13481836040516200016292919062000328565b60405180910390a15050565b611b53806200051d83390190565b6000620001936200018d8462000385565b6200035c565b905082815260208101848484011115620001ac57600080fd5b620001b984828562000447565b509392505050565b600081359050620001d28162000502565b92915050565b600082601f830112620001ea57600080fd5b8135620001fc8482602086016200017c565b91505092915050565b600080604083850312156200021957600080fd5b60006200022985828601620001c1565b92505060206200023c85828601620001c1565b9150509250929050565b6000602082840312156200025957600080fd5b600082013567ffffffffffffffff8111156200027457600080fd5b6200028284828501620001d8565b91505092915050565b62000296816200040b565b82525050565b620002a781620003d7565b82525050565b6000620002ba82620003bb565b620002c68185620003c6565b9350620002d881856020860162000456565b620002e381620004f1565b840191505092915050565b60006020820190506200030560008301846200028b565b92915050565b60006020820190506200032260008301846200029c565b92915050565b60006040820190506200033f60008301856200029c565b8181036020830152620003538184620002ad565b90509392505050565b6000620003686200037b565b90506200037682826200048c565b919050565b6000604051905090565b600067ffffffffffffffff821115620003a357620003a2620004c2565b5b620003ae82620004f1565b9050602081019050919050565b600081519050919050565b600082825260208201905092915050565b6000620003e482620003eb565b9050919050565b600073ffffffffffffffffffffffffffffffffffffffff82169050919050565b600062000418826200041f565b9050919050565b60006200042c8262000433565b9050919050565b60006200044082620003eb565b9050919050565b82818337600083830152505050565b60005b838110156200047657808201518184015260208101905062000459565b8381111562000486576000848401525b50505050565b6200049782620004f1565b810181811067ffffffffffffffff82111715620004b957620004b8620004c2565b5b80604052505050565b7f4e487b7100000000000000000000000000000000000000000000000000000000600052604160045260246000fd5b6000601f19601f8301169050919050565b6200050d81620003d7565b81146200051957600080fd5b5056fe60a06040523480156200001157600080fd5b5060405162001b5338038062001b5383398181016040528101906200003791906200020b565b8060006200004a620001ec60201b60201c565b9050806000806101000a81548173ffffffffffffffffffffffffffffffffffffffff021916908373ffffffffffffffffffffffffffffffffffffffff1602179055508073ffffffffffffffffffffffffffffffffffffffff16600073ffffffffffffffffffffffffffffffffffffffff167f8be0079c531659141344cd1fd0a4f28419497f9722a3daafe3b4186f6b6457e060405160405180910390a350600073ffffffffffffffffffffffffffffffffffffffff168173ffffffffffffffffffffffffffffffffffffffff1614156200015b576040517f08c379a000000000000000000000000000000000000000000000000000000000815260040162000152906200025e565b60405180910390fd5b8073ffffffffffffffffffffffffffffffffffffffff1660808173ffffffffffffffffffffffffffffffffffffffff1660601b815250506000600260006101000a81548160ff02191690836002811115620001df577f4e487b7100000000000000000000000000000000000000000000000000000000600052602160045260246000fd5b021790555050506200032e565b600033905090565b600081519050620002058162000314565b92915050565b6000602082840312156200021e57600080fd5b60006200022e84828501620001f4565b91505092915050565b600062000246602d8362000280565b91506200025382620002c5565b604082019050919050565b60006020820190508181036000830152620002798162000237565b9050919050565b600082825260208201905092915050565b60006200029e82620002a5565b9050919050565b600073ffffffffffffffffffffffffffffffffffffffff82169050919050565b7f526566756e64457363726f773a2062656e65666963696172792069732074686560008201527f207a65726f206164647265737300000000000000000000000000000000000000602082015250565b6200031f8162000291565b81146200032b57600080fd5b50565b60805160601c6118066200034d600039600061027501526118066000f3fe6080604052600436106100a75760003560e01c80638da5cb5b116100645780638da5cb5b146101825780639af6549a146101ad578063c19d93fb146101c4578063e3a9db1a146101ef578063f2fde38b1461022c578063f340fa0114610255576100a7565b806338af3eed146100ac57806343d726d6146100d757806351cff8d9146100ee578063685ca19414610117578063715018a6146101545780638c52dc411461016b575b600080fd5b3480156100b857600080fd5b506100c1610271565b6040516100ce9190611235565b60405180910390f35b3480156100e357600080fd5b506100ec610299565b005b3480156100fa57600080fd5b5061011560048036038101906101109190611033565b61044d565b005b34801561012357600080fd5b5061013e6004803603810190610139919061100a565b6104a1565b60405161014b9190611250565b60405180910390f35b34801561016057600080fd5b50610169610525565b005b34801561017757600080fd5b5061018061065f565b005b34801561018e57600080fd5b50610197610814565b6040516101a4919061121a565b60405180910390f35b3480156101b957600080fd5b506101c261083d565b005b3480156101d057600080fd5b506101d9610928565b6040516101e6919061126b565b60405180910390f35b3480156101fb57600080fd5b506102166004803603810190610211919061100a565b61093f565b60405161022391906113a6565b60405180910390f35b34801561023857600080fd5b50610253600480360381019061024e919061100a565b610988565b005b61026f600480360381019061026a919061100a565b610b31565b005b60007f0000000000000000000000000000000000000000000000000000000000000000905090565b6102a1610b3d565b73ffffffffffffffffffffffffffffffffffffffff166102bf610814565b73ffffffffffffffffffffffffffffffffffffffff1614610315576040517f08c379a000000000000000000000000000000000000000000000000000000000815260040161030c90611366565b60405180910390fd5b6000600281111561034f577f4e487b7100000000000000000000000000000000000000000000000000000000600052602160045260246000fd5b610357610928565b600281111561038f577f4e487b7100000000000000000000000000000000000000000000000000000000600052602160045260246000fd5b146103cf576040517f08c379a00000000000000000000000000000000000000000000000000000000081526004016103c690611346565b60405180910390fd5b60028060006101000a81548160ff0219169083600281111561041a577f4e487b7100000000000000000000000000000000000000000000000000000000600052602160045260246000fd5b02179055507f088672c3a6e342f7cd94a65ba63b79df24a8973927b4d05d803c44bbf787d12f60405160405180910390a1565b610456816104a1565b610495576040517f08c379a000000000000000000000000000000000000000000000000000000000815260040161048c90611326565b60405180910390fd5b61049e81610b45565b50565b6000600160028111156104dd577f4e487b7100000000000000000000000000000000000000000000000000000000600052602160045260246000fd5b6104e5610928565b600281111561051d577f4e487b7100000000000000000000000000000000000000000000000000000000600052602160045260246000fd5b149050919050565b61052d610b3d565b73ffffffffffffffffffffffffffffffffffffffff1661054b610814565b73ffffffffffffffffffffffffffffffffffffffff16146105a1576040517f08c379a000000000000000000000000000000000000000000000000000000000815260040161059890611366565b60405180910390fd5b600073ffffffffffffffffffffffffffffffffffffffff1660008054906101000a900473ffffffffffffffffffffffffffffffffffffffff1673ffffffffffffffffffffffffffffffffffffffff167f8be0079c531659141344cd1fd0a4f28419497f9722a3daafe3b4186f6b6457e060405160405180910390a360008060006101000a81548173ffffffffffffffffffffffffffffffffffffffff021916908373ffffffffffffffffffffffffffffffffffffffff160217905550565b610667610b3d565b73ffffffffffffffffffffffffffffffffffffffff16610685610814565b73ffffffffffffffffffffffffffffffffffffffff16146106db576040517f08c379a00000000000000000000000000000000000000000000000000000000081526004016106d290611366565b60405180910390fd5b60006002811115610715577f4e487b7100000000000000000000000000000000000000000000000000000000600052602160045260246000fd5b61071d610928565b6002811115610755577f4e487b7100000000000000000000000000000000000000000000000000000000600052602160045260246000fd5b14610795576040517f08c379a000000000000000000000000000000000000000000000000000000000815260040161078c90611386565b60405180910390fd5b6001600260006101000a81548160ff021916908360028111156107e1577f4e487b7100000000000000000000000000000000000000000000000000000000600052602160045260246000fd5b02179055507f599d8e5a83cffb867d051598c4d70e805d59802d8081c1c7d6dffc5b6aca2b8960405160405180910390a1565b60008060009054906101000a900473ffffffffffffffffffffffffffffffffffffffff16905090565b600280811115610876577f4e487b7100000000000000000000000000000000000000000000000000000000600052602160045260246000fd5b61087e610928565b60028111156108b6577f4e487b7100000000000000000000000000000000000000000000000000000000600052602160045260246000fd5b146108f6576040517f08c379a00000000000000000000000000000000000000000000000000000000081526004016108ed90611286565b60405180910390fd5b61092647610902610271565b73ffffffffffffffffffffffffffffffffffffffff16610cc590919063ffffffff16565b565b6000600260009054906101000a900460ff16905090565b6000600160008373ffffffffffffffffffffffffffffffffffffffff1673ffffffffffffffffffffffffffffffffffffffff168152602001908152602001600020549050919050565b610990610b3d565b73ffffffffffffffffffffffffffffffffffffffff166109ae610814565b73ffffffffffffffffffffffffffffffffffffffff1614610a04576040517f08c379a00000000000000000000000000000000000000000000000000000000081526004016109fb90611366565b60405180910390fd5b600073ffffffffffffffffffffffffffffffffffffffff168173ffffffffffffffffffffffffffffffffffffffff161415610a74576040517f08c379a0000000000000000000000000000000000000000000000000000000008152600401610a6b906112a6565b60405180910390fd5b8073ffffffffffffffffffffffffffffffffffffffff1660008054906101000a900473ffffffffffffffffffffffffffffffffffffffff1673ffffffffffffffffffffffffffffffffffffffff167f8be0079c531659141344cd1fd0a4f28419497f9722a3daafe3b4186f6b6457e060405160405180910390a3806000806101000a81548173ffffffffffffffffffffffffffffffffffffffff021916908373ffffffffffffffffffffffffffffffffffffffff16021790555050565b610b3a81610db9565b50565b600033905090565b610b4d610b3d565b73ffffffffffffffffffffffffffffffffffffffff16610b6b610814565b73ffffffffffffffffffffffffffffffffffffffff1614610bc1576040517f08c379a0000000000000000000000000000000000000000000000000000000008152600401610bb890611366565b60405180910390fd5b6000600160008373ffffffffffffffffffffffffffffffffffffffff1673ffffffffffffffffffffffffffffffffffffffff1681526020019081526020016000205490506000600160008473ffffffffffffffffffffffffffffffffffffffff1673ffffffffffffffffffffffffffffffffffffffff16815260200190815260200160002081905550610c73818373ffffffffffffffffffffffffffffffffffffffff16610cc590919063ffffffff16565b8173ffffffffffffffffffffffffffffffffffffffff167f7084f5476618d8e60b11ef0d7d3f06914655adb8793e28ff7f018d4c76d505d582604051610cb991906113a6565b60405180910390a25050565b80471015610d08576040517f08c379a0000000000000000000000000000000000000000000000000000000008152600401610cff906112e6565b60405180910390fd5b60008273ffffffffffffffffffffffffffffffffffffffff1682604051610d2e90611205565b60006040518083038185875af1925050503d8060008114610d6b576040519150601f19603f3d011682016040523d82523d6000602084013e610d70565b606091505b5050905080610db4576040517f08c379a0000000000000000000000000000000000000000000000000000000008152600401610dab906112c6565b60405180910390fd5b505050565b60006002811115610df3577f4e487b7100000000000000000000000000000000000000000000000000000000600052602160045260246000fd5b610dfb610928565b6002811115610e33577f4e487b7100000000000000000000000000000000000000000000000000000000600052602160045260246000fd5b14610e73576040517f08c379a0000000000000000000000000000000000000000000000000000000008152600401610e6a90611306565b60405180910390fd5b610e7c81610e7f565b50565b610e87610b3d565b73ffffffffffffffffffffffffffffffffffffffff16610ea5610814565b73ffffffffffffffffffffffffffffffffffffffff1614610efb576040517f08c379a0000000000000000000000000000000000000000000000000000000008152600401610ef290611366565b60405180910390fd5b600034905080600160008473ffffffffffffffffffffffffffffffffffffffff1673ffffffffffffffffffffffffffffffffffffffff16815260200190815260200160002054610f4b91906113dd565b600160008473ffffffffffffffffffffffffffffffffffffffff1673ffffffffffffffffffffffffffffffffffffffff168152602001908152602001600020819055508173ffffffffffffffffffffffffffffffffffffffff167f2da466a7b24304f47e87fa2e1e5a81b9831ce54fec19055ce277ca2f39ba42c482604051610fd491906113a6565b60405180910390a25050565b600081359050610fef816117a2565b92915050565b600081359050611004816117b9565b92915050565b60006020828403121561101c57600080fd5b600061102a84828501610fe0565b91505092915050565b60006020828403121561104557600080fd5b600061105384828501610ff5565b91505092915050565b61106581611445565b82525050565b61107481611433565b82525050565b61108381611457565b82525050565b611092816114a0565b82525050565b60006110a56038836113cc565b91506110b082611510565b604082019050919050565b60006110c86026836113cc565b91506110d38261155f565b604082019050919050565b60006110eb603a836113cc565b91506110f6826115ae565b604082019050919050565b600061110e601d836113cc565b9150611119826115fd565b602082019050919050565b6000611131602b836113cc565b915061113c82611626565b604082019050919050565b60006111546033836113cc565b915061115f82611675565b604082019050919050565b60006111776029836113cc565b9150611182826116c4565b604082019050919050565b600061119a6020836113cc565b91506111a582611713565b602082019050919050565b60006111bd6000836113c1565b91506111c88261173c565b600082019050919050565b60006111e06032836113cc565b91506111eb8261173f565b604082019050919050565b6111ff81611496565b82525050565b6000611210826111b0565b9150819050919050565b600060208201905061122f600083018461106b565b92915050565b600060208201905061124a600083018461105c565b92915050565b6000602082019050611265600083018461107a565b92915050565b60006020820190506112806000830184611089565b92915050565b6000602082019050818103600083015261129f81611098565b9050919050565b600060208201905081810360008301526112bf816110bb565b9050919050565b600060208201905081810360008301526112df816110de565b9050919050565b600060208201905081810360008301526112ff81611101565b9050919050565b6000602082019050818103600083015261131f81611124565b9050919050565b6000602082019050818103600083015261133f81611147565b9050919050565b6000602082019050818103600083015261135f8161116a565b9050919050565b6000602082019050818103600083015261137f8161118d565b9050919050565b6000602082019050818103600083015261139f816111d3565b9050919050565b60006020820190506113bb60008301846111f6565b92915050565b600081905092915050565b600082825260208201905092915050565b60006113e882611496565b91506113f383611496565b9250827fffffffffffffffffffffffffffffffffffffffffffffffffffffffffffffffff03821115611428576114276114b2565b5b828201905092915050565b600061143e82611476565b9050919050565b600061145082611476565b9050919050565b60008115159050919050565b60008190506114718261178e565b919050565b600073ffffffffffffffffffffffffffffffffffffffff82169050919050565b6000819050919050565b60006114ab82611463565b9050919050565b7f4e487b7100000000000000000000000000000000000000000000000000000000600052601160045260246000fd5b7f4e487b7100000000000000000000000000000000000000000000000000000000600052602160045260246000fd5b7f526566756e64457363726f773a2062656e65666963696172792063616e206f6e60008201527f6c79207769746864726177207768696c6520636c6f7365640000000000000000602082015250565b7f4f776e61626c653a206e6577206f776e657220697320746865207a65726f206160008201527f6464726573730000000000000000000000000000000000000000000000000000602082015250565b7f416464726573733a20756e61626c6520746f2073656e642076616c75652c207260008201527f6563697069656e74206d61792068617665207265766572746564000000000000602082015250565b7f416464726573733a20696e73756666696369656e742062616c616e6365000000600082015250565b7f526566756e64457363726f773a2063616e206f6e6c79206465706f736974207760008201527f68696c6520616374697665000000000000000000000000000000000000000000602082015250565b7f436f6e646974696f6e616c457363726f773a207061796565206973206e6f742060008201527f616c6c6f77656420746f20776974686472617700000000000000000000000000602082015250565b7f526566756e64457363726f773a2063616e206f6e6c7920636c6f73652077686960008201527f6c65206163746976650000000000000000000000000000000000000000000000602082015250565b7f4f776e61626c653a2063616c6c6572206973206e6f7420746865206f776e6572600082015250565b50565b7f526566756e64457363726f773a2063616e206f6e6c7920656e61626c6520726560008201527f66756e6473207768696c65206163746976650000000000000000000000000000602082015250565b6003811061179f5761179e6114e1565b5b50565b6117ab81611433565b81146117b657600080fd5b50565b6117c281611445565b81146117cd57600080fd5b5056fea264697066735822122041ea46cf2d421652c181dabcfd43114cdf61d1210b98a6111b6908332d5181da64736f6c63430008040033a26469706673582212200a6483077203f575666848d3508b3019885115f867f06eb57dbeb8b9f8e8a79364736f6c63430008040033",
  "immutableReferences": {},
  "source": "// SPDX-License-Identifier: MIT\npragma solidity >=0.8.0 <0.9.0;\n\nimport \"./Campaign.sol\";\nimport \"@openzeppelin/contracts/token/ERC20/utils/SafeERC20.sol\";\nimport \"@openzeppelin/contracts/access/Ownable.sol\";\nimport \"@openzeppelin/contracts/utils/escrow/RefundEscrow.sol\";\n\n\ncontract Raise {\n    mapping(address => Campaign) campaignOwners;\n    \n    event CampaignLaunched(address payable campaignContract, string name);\n    \n    struct CampaignData {\n        address payable beneficiary;\n        \n    }\n\n    function createCampaign(string memory _name) public {\n        Campaign justCreated = new Campaign(payable(msg.sender));\n        emit CampaignLaunched(payable(address(justCreated)), _name);\n    }\n\n    function depositToCampaign(address payable _campaign, address payable _refundee) public payable {\n        Campaign(_campaign).deposit(_refundee);\n    }\n}\n",
  "sourcePath": "/home/drew/Projects/raise/src/truffleenv/contracts/Raise.sol",
  "compiler": {
    "name": "solc",
    "version": "0.8.4+commit.c7e474f2.Emscripten.clang"
  },
  "schemaVersion": "3.4.1",
  "updatedAt": "2021-05-28T20:05:12.079Z",
  "networkType": "ethereum",
  "devdoc": {
    "kind": "dev",
    "methods": {},
    "version": 1
  },
  "userdoc": {
    "kind": "user",
    "methods": {},
    "version": 1
  }
}