{
  "contractName": "Raise",
  "abi": [
    {
      "anonymous": false,
      "inputs": [
        {
          "indexed": false,
          "internalType": "address payable",
          "name": "campaignContract",
          "type": "address"
        }
      ],
      "name": "CampaignLaunched",
      "type": "event"
    },
    {
      "inputs": [
        {
          "internalType": "uint256",
          "name": "_target",
          "type": "uint256"
        },
        {
          "internalType": "uint64",
          "name": "_endTime",
          "type": "uint64"
        }
      ],
      "name": "createCampaign",
      "outputs": [],
      "stateMutability": "nonpayable",
      "type": "function"
    },
    {
      "inputs": [
        {
          "internalType": "address payable",
          "name": "_campaign",
          "type": "address"
        },
        {
          "internalType": "address payable",
          "name": "_refundee",
          "type": "address"
        }
      ],
      "name": "depositToCampaign",
      "outputs": [],
      "stateMutability": "payable",
      "type": "function"
    },
    {
      "inputs": [
        {
          "internalType": "address payable",
          "name": "_campaign",
          "type": "address"
        }
      ],
      "name": "finalizeCampaign",
      "outputs": [],
      "stateMutability": "nonpayable",
      "type": "function"
    },
    {
      "inputs": [
        {
          "internalType": "address",
          "name": "_campaign",
          "type": "address"
        }
      ],
      "name": "getBalance",
      "outputs": [
        {
          "internalType": "uint256",
          "name": "",
          "type": "uint256"
        }
      ],
      "stateMutability": "view",
      "type": "function"
    },
    {
      "inputs": [
        {
          "internalType": "address",
          "name": "_campaign",
          "type": "address"
        },
        {
          "internalType": "address payable",
          "name": "_withdrawAddress",
          "type": "address"
        }
      ],
      "name": "claimRefund",
      "outputs": [],
      "stateMutability": "nonpayable",
      "type": "function"
    }
  ],
  "bytecode": "0x608060405234801561001057600080fd5b50612746806100206000396000f3fe608060405260043610620000505760003560e01c8063169cc7e714620000555780633d66da8e146200008357806399fd22f114620000b1578063cac4baf714620000df578063f8b2cb4f14620000ff575b600080fd5b3480156200006257600080fd5b506200008160048036038101906200007b919062000654565b62000143565b005b3480156200009057600080fd5b50620000af6004803603810190620000a99190620006c1565b6200038e565b005b348015620000be57600080fd5b50620000dd6004803603810190620000d791906200072e565b62000401565b005b620000fd6004803603810190620000f7919062000680565b62000480565b005b3480156200010c57600080fd5b506200012b600480360381019062000125919062000628565b62000586565b6040516200013a91906200082a565b60405180910390f35b60008190508073ffffffffffffffffffffffffffffffffffffffff1663db9618e66040518163ffffffff1660e01b815260040160206040518083038186803b1580156200018f57600080fd5b505afa158015620001a4573d6000803e3d6000fd5b505050506040513d601f19601f82011682018060405250810190620001ca919062000702565b15620001d557600080fd5b8073ffffffffffffffffffffffffffffffffffffffff16633bde5ba86040518163ffffffff1660e01b815260040160206040518083038186803b1580156200021c57600080fd5b505afa15801562000231573d6000803e3d6000fd5b505050506040513d601f19601f8201168201806040525081019062000257919062000702565b1562000327578073ffffffffffffffffffffffffffffffffffffffff166343d726d66040518163ffffffff1660e01b8152600401600060405180830381600087803b158015620002a657600080fd5b505af1158015620002bb573d6000803e3d6000fd5b505050508073ffffffffffffffffffffffffffffffffffffffff16639af6549a6040518163ffffffff1660e01b8152600401600060405180830381600087803b1580156200030857600080fd5b505af11580156200031d573d6000803e3d6000fd5b505050506200038a565b8073ffffffffffffffffffffffffffffffffffffffff16638c52dc416040518163ffffffff1660e01b8152600401600060405180830381600087803b1580156200037057600080fd5b505af115801562000385573d6000803e3d6000fd5b505050505b5050565b8173ffffffffffffffffffffffffffffffffffffffff166351cff8d9826040518263ffffffff1660e01b8152600401620003c99190620007d0565b600060405180830381600087803b158015620003e457600080fd5b505af1158015620003f9573d6000803e3d6000fd5b505050505050565b60003383836040516200041490620005a7565b6200042293929190620007ed565b604051809103906000f0801580156200043f573d6000803e3d6000fd5b5090507f5c150680ec3f5f68173a4a84c127fbda8ef5542a2710893e9504bd045543d50881604051620004739190620007d0565b60405180910390a1505050565b60008290508073ffffffffffffffffffffffffffffffffffffffff1663db9618e66040518163ffffffff1660e01b815260040160206040518083038186803b158015620004cc57600080fd5b505afa158015620004e1573d6000803e3d6000fd5b505050506040513d601f19601f8201168201806040525081019062000507919062000702565b6200051157600080fd5b8073ffffffffffffffffffffffffffffffffffffffff1663f340fa0134846040518363ffffffff1660e01b81526004016200054d9190620007b3565b6000604051808303818588803b1580156200056757600080fd5b505af11580156200057c573d6000803e3d6000fd5b5050505050505050565b60008173ffffffffffffffffffffffffffffffffffffffff16319050919050565b611d99806200097883390190565b600081359050620005c681620008f5565b92915050565b600081359050620005dd816200090f565b92915050565b600081519050620005f48162000929565b92915050565b6000813590506200060b8162000943565b92915050565b60008135905062000622816200095d565b92915050565b6000602082840312156200063b57600080fd5b60006200064b84828501620005b5565b91505092915050565b6000602082840312156200066757600080fd5b60006200067784828501620005cc565b91505092915050565b600080604083850312156200069457600080fd5b6000620006a485828601620005cc565b9250506020620006b785828601620005cc565b9150509250929050565b60008060408385031215620006d557600080fd5b6000620006e585828601620005b5565b9250506020620006f885828601620005cc565b9150509250929050565b6000602082840312156200071557600080fd5b60006200072584828501620005e3565b91505092915050565b600080604083850312156200074257600080fd5b60006200075285828601620005fa565b9250506020620007658582860162000611565b9150509250929050565b6200077a81620008b9565b82525050565b6200078b816200085b565b82525050565b6200079c816200089b565b82525050565b620007ad81620008a5565b82525050565b6000602082019050620007ca60008301846200076f565b92915050565b6000602082019050620007e7600083018462000780565b92915050565b600060608201905062000804600083018662000780565b62000813602083018562000791565b620008226040830184620007a2565b949350505050565b600060208201905062000841600083018462000791565b92915050565b600062000854826200087b565b9050919050565b600062000868826200087b565b9050919050565b60008115159050919050565b600073ffffffffffffffffffffffffffffffffffffffff82169050919050565b6000819050919050565b600067ffffffffffffffff82169050919050565b6000620008c682620008cd565b9050919050565b6000620008da82620008e1565b9050919050565b6000620008ee826200087b565b9050919050565b620009008162000847565b81146200090c57600080fd5b50565b6200091a816200085b565b81146200092657600080fd5b50565b62000934816200086f565b81146200094057600080fd5b50565b6200094e816200089b565b81146200095a57600080fd5b50565b6200096881620008a5565b81146200097457600080fd5b5056fe60a06040523480156200001157600080fd5b5060405162001d9938038062001d9983398181016040528101906200003791906200026b565b8260006200004a6200021e60201b60201c565b9050806000806101000a81548173ffffffffffffffffffffffffffffffffffffffff021916908373ffffffffffffffffffffffffffffffffffffffff1602179055508073ffffffffffffffffffffffffffffffffffffffff16600073ffffffffffffffffffffffffffffffffffffffff167f8be0079c531659141344cd1fd0a4f28419497f9722a3daafe3b4186f6b6457e060405160405180910390a350600073ffffffffffffffffffffffffffffffffffffffff168173ffffffffffffffffffffffffffffffffffffffff1614156200015b576040517f08c379a00000000000000000000000000000000000000000000000000000000081526004016200015290620002e8565b60405180910390fd5b8073ffffffffffffffffffffffffffffffffffffffff1660808173ffffffffffffffffffffffffffffffffffffffff1660601b815250506000600260006101000a81548160ff02191690836002811115620001df577f4e487b7100000000000000000000000000000000000000000000000000000000600052602160045260246000fd5b0217905550508160038190555080600460006101000a81548167ffffffffffffffff021916908367ffffffffffffffff1602179055505050506200040a565b600033905090565b6000815190506200023781620003bc565b92915050565b6000815190506200024e81620003d6565b92915050565b6000815190506200026581620003f0565b92915050565b6000806000606084860312156200028157600080fd5b6000620002918682870162000226565b9350506020620002a4868287016200023d565b9250506040620002b78682870162000254565b9150509250925092565b6000620002d0602d836200030a565b9150620002dd826200036d565b604082019050919050565b600060208201905081810360008301526200030381620002c1565b9050919050565b600082825260208201905092915050565b600062000328826200032f565b9050919050565b600073ffffffffffffffffffffffffffffffffffffffff82169050919050565b6000819050919050565b600067ffffffffffffffff82169050919050565b7f526566756e64457363726f773a2062656e65666963696172792069732074686560008201527f207a65726f206164647265737300000000000000000000000000000000000000602082015250565b620003c7816200031b565b8114620003d357600080fd5b50565b620003e1816200034f565b8114620003ed57600080fd5b50565b620003fb8162000359565b81146200040757600080fd5b50565b60805160601c61197062000429600039600061033901526119706000f3fe6080604052600436106100e85760003560e01c80638da5cb5b1161008a578063db9618e611610059578063db9618e614610288578063e3a9db1a146102b3578063f2fde38b146102f0578063f340fa0114610319576100e8565b80638da5cb5b146101ee5780639af6549a14610219578063c19d93fb14610230578063c59d48471461025b576100e8565b806351cff8d9116100c657806351cff8d91461015a578063685ca19414610183578063715018a6146101c05780638c52dc41146101d7576100e8565b806338af3eed146100ed5780633bde5ba81461011857806343d726d614610143575b600080fd5b3480156100f957600080fd5b50610102610335565b60405161010f9190611368565b60405180910390f35b34801561012457600080fd5b5061012d61035d565b60405161013a9190611383565b60405180910390f35b34801561014f57600080fd5b5061015861036a565b005b34801561016657600080fd5b50610181600480360381019061017c9190611166565b61051e565b005b34801561018f57600080fd5b506101aa60048036038101906101a5919061113d565b610572565b6040516101b79190611383565b60405180910390f35b3480156101cc57600080fd5b506101d56105f6565b005b3480156101e357600080fd5b506101ec610730565b005b3480156101fa57600080fd5b506102036108e5565b604051610210919061134d565b60405180910390f35b34801561022557600080fd5b5061022e61090e565b005b34801561023c57600080fd5b506102456109f9565b604051610252919061139e565b60405180910390f35b34801561026757600080fd5b50610270610a10565b60405161027f939291906114f4565b60405180910390f35b34801561029457600080fd5b5061029d610a48565b6040516102aa9190611383565b60405180910390f35b3480156102bf57600080fd5b506102da60048036038101906102d5919061113d565b610a72565b6040516102e791906114d9565b60405180910390f35b3480156102fc57600080fd5b506103176004803603810190610312919061113d565b610abb565b005b610333600480360381019061032e919061113d565b610c64565b005b60007f0000000000000000000000000000000000000000000000000000000000000000905090565b6000600354471015905090565b610372610c70565b73ffffffffffffffffffffffffffffffffffffffff166103906108e5565b73ffffffffffffffffffffffffffffffffffffffff16146103e6576040517f08c379a00000000000000000000000000000000000000000000000000000000081526004016103dd90611499565b60405180910390fd5b60006002811115610420577f4e487b7100000000000000000000000000000000000000000000000000000000600052602160045260246000fd5b6104286109f9565b6002811115610460577f4e487b7100000000000000000000000000000000000000000000000000000000600052602160045260246000fd5b146104a0576040517f08c379a000000000000000000000000000000000000000000000000000000000815260040161049790611479565b60405180910390fd5b60028060006101000a81548160ff021916908360028111156104eb577f4e487b7100000000000000000000000000000000000000000000000000000000600052602160045260246000fd5b02179055507f088672c3a6e342f7cd94a65ba63b79df24a8973927b4d05d803c44bbf787d12f60405160405180910390a1565b61052781610572565b610566576040517f08c379a000000000000000000000000000000000000000000000000000000000815260040161055d90611459565b60405180910390fd5b61056f81610c78565b50565b6000600160028111156105ae577f4e487b7100000000000000000000000000000000000000000000000000000000600052602160045260246000fd5b6105b66109f9565b60028111156105ee577f4e487b7100000000000000000000000000000000000000000000000000000000600052602160045260246000fd5b149050919050565b6105fe610c70565b73ffffffffffffffffffffffffffffffffffffffff1661061c6108e5565b73ffffffffffffffffffffffffffffffffffffffff1614610672576040517f08c379a000000000000000000000000000000000000000000000000000000000815260040161066990611499565b60405180910390fd5b600073ffffffffffffffffffffffffffffffffffffffff1660008054906101000a900473ffffffffffffffffffffffffffffffffffffffff1673ffffffffffffffffffffffffffffffffffffffff167f8be0079c531659141344cd1fd0a4f28419497f9722a3daafe3b4186f6b6457e060405160405180910390a360008060006101000a81548173ffffffffffffffffffffffffffffffffffffffff021916908373ffffffffffffffffffffffffffffffffffffffff160217905550565b610738610c70565b73ffffffffffffffffffffffffffffffffffffffff166107566108e5565b73ffffffffffffffffffffffffffffffffffffffff16146107ac576040517f08c379a00000000000000000000000000000000000000000000000000000000081526004016107a390611499565b60405180910390fd5b600060028111156107e6577f4e487b7100000000000000000000000000000000000000000000000000000000600052602160045260246000fd5b6107ee6109f9565b6002811115610826577f4e487b7100000000000000000000000000000000000000000000000000000000600052602160045260246000fd5b14610866576040517f08c379a000000000000000000000000000000000000000000000000000000000815260040161085d906114b9565b60405180910390fd5b6001600260006101000a81548160ff021916908360028111156108b2577f4e487b7100000000000000000000000000000000000000000000000000000000600052602160045260246000fd5b02179055507f599d8e5a83cffb867d051598c4d70e805d59802d8081c1c7d6dffc5b6aca2b8960405160405180910390a1565b60008060009054906101000a900473ffffffffffffffffffffffffffffffffffffffff16905090565b600280811115610947577f4e487b7100000000000000000000000000000000000000000000000000000000600052602160045260246000fd5b61094f6109f9565b6002811115610987577f4e487b7100000000000000000000000000000000000000000000000000000000600052602160045260246000fd5b146109c7576040517f08c379a00000000000000000000000000000000000000000000000000000000081526004016109be906113b9565b60405180910390fd5b6109f7476109d3610335565b73ffffffffffffffffffffffffffffffffffffffff16610df890919063ffffffff16565b565b6000600260009054906101000a900460ff16905090565b600080600060035447600460009054906101000a900467ffffffffffffffff168067ffffffffffffffff169050925092509250909192565b6000600460009054906101000a900467ffffffffffffffff1667ffffffffffffffff164210905090565b6000600160008373ffffffffffffffffffffffffffffffffffffffff1673ffffffffffffffffffffffffffffffffffffffff168152602001908152602001600020549050919050565b610ac3610c70565b73ffffffffffffffffffffffffffffffffffffffff16610ae16108e5565b73ffffffffffffffffffffffffffffffffffffffff1614610b37576040517f08c379a0000000000000000000000000000000000000000000000000000000008152600401610b2e90611499565b60405180910390fd5b600073ffffffffffffffffffffffffffffffffffffffff168173ffffffffffffffffffffffffffffffffffffffff161415610ba7576040517f08c379a0000000000000000000000000000000000000000000000000000000008152600401610b9e906113d9565b60405180910390fd5b8073ffffffffffffffffffffffffffffffffffffffff1660008054906101000a900473ffffffffffffffffffffffffffffffffffffffff1673ffffffffffffffffffffffffffffffffffffffff167f8be0079c531659141344cd1fd0a4f28419497f9722a3daafe3b4186f6b6457e060405160405180910390a3806000806101000a81548173ffffffffffffffffffffffffffffffffffffffff021916908373ffffffffffffffffffffffffffffffffffffffff16021790555050565b610c6d81610eec565b50565b600033905090565b610c80610c70565b73ffffffffffffffffffffffffffffffffffffffff16610c9e6108e5565b73ffffffffffffffffffffffffffffffffffffffff1614610cf4576040517f08c379a0000000000000000000000000000000000000000000000000000000008152600401610ceb90611499565b60405180910390fd5b6000600160008373ffffffffffffffffffffffffffffffffffffffff1673ffffffffffffffffffffffffffffffffffffffff1681526020019081526020016000205490506000600160008473ffffffffffffffffffffffffffffffffffffffff1673ffffffffffffffffffffffffffffffffffffffff16815260200190815260200160002081905550610da6818373ffffffffffffffffffffffffffffffffffffffff16610df890919063ffffffff16565b8173ffffffffffffffffffffffffffffffffffffffff167f7084f5476618d8e60b11ef0d7d3f06914655adb8793e28ff7f018d4c76d505d582604051610dec91906114d9565b60405180910390a25050565b80471015610e3b576040517f08c379a0000000000000000000000000000000000000000000000000000000008152600401610e3290611419565b60405180910390fd5b60008273ffffffffffffffffffffffffffffffffffffffff1682604051610e6190611338565b60006040518083038185875af1925050503d8060008114610e9e576040519150601f19603f3d011682016040523d82523d6000602084013e610ea3565b606091505b5050905080610ee7576040517f08c379a0000000000000000000000000000000000000000000000000000000008152600401610ede906113f9565b60405180910390fd5b505050565b60006002811115610f26577f4e487b7100000000000000000000000000000000000000000000000000000000600052602160045260246000fd5b610f2e6109f9565b6002811115610f66577f4e487b7100000000000000000000000000000000000000000000000000000000600052602160045260246000fd5b14610fa6576040517f08c379a0000000000000000000000000000000000000000000000000000000008152600401610f9d90611439565b60405180910390fd5b610faf81610fb2565b50565b610fba610c70565b73ffffffffffffffffffffffffffffffffffffffff16610fd86108e5565b73ffffffffffffffffffffffffffffffffffffffff161461102e576040517f08c379a000000000000000000000000000000000000000000000000000000000815260040161102590611499565b60405180910390fd5b600034905080600160008473ffffffffffffffffffffffffffffffffffffffff1673ffffffffffffffffffffffffffffffffffffffff1681526020019081526020016000205461107e9190611547565b600160008473ffffffffffffffffffffffffffffffffffffffff1673ffffffffffffffffffffffffffffffffffffffff168152602001908152602001600020819055508173ffffffffffffffffffffffffffffffffffffffff167f2da466a7b24304f47e87fa2e1e5a81b9831ce54fec19055ce277ca2f39ba42c48260405161110791906114d9565b60405180910390a25050565b6000813590506111228161190c565b92915050565b60008135905061113781611923565b92915050565b60006020828403121561114f57600080fd5b600061115d84828501611113565b91505092915050565b60006020828403121561117857600080fd5b600061118684828501611128565b91505092915050565b611198816115af565b82525050565b6111a78161159d565b82525050565b6111b6816115c1565b82525050565b6111c58161160a565b82525050565b60006111d8603883611536565b91506111e38261167a565b604082019050919050565b60006111fb602683611536565b9150611206826116c9565b604082019050919050565b600061121e603a83611536565b915061122982611718565b604082019050919050565b6000611241601d83611536565b915061124c82611767565b602082019050919050565b6000611264602b83611536565b915061126f82611790565b604082019050919050565b6000611287603383611536565b9150611292826117df565b604082019050919050565b60006112aa602983611536565b91506112b58261182e565b604082019050919050565b60006112cd602083611536565b91506112d88261187d565b602082019050919050565b60006112f060008361152b565b91506112fb826118a6565b600082019050919050565b6000611313603283611536565b915061131e826118a9565b604082019050919050565b61133281611600565b82525050565b6000611343826112e3565b9150819050919050565b6000602082019050611362600083018461119e565b92915050565b600060208201905061137d600083018461118f565b92915050565b600060208201905061139860008301846111ad565b92915050565b60006020820190506113b360008301846111bc565b92915050565b600060208201905081810360008301526113d2816111cb565b9050919050565b600060208201905081810360008301526113f2816111ee565b9050919050565b6000602082019050818103600083015261141281611211565b9050919050565b6000602082019050818103600083015261143281611234565b9050919050565b6000602082019050818103600083015261145281611257565b9050919050565b600060208201905081810360008301526114728161127a565b9050919050565b600060208201905081810360008301526114928161129d565b9050919050565b600060208201905081810360008301526114b2816112c0565b9050919050565b600060208201905081810360008301526114d281611306565b9050919050565b60006020820190506114ee6000830184611329565b92915050565b60006060820190506115096000830186611329565b6115166020830185611329565b6115236040830184611329565b949350505050565b600081905092915050565b600082825260208201905092915050565b600061155282611600565b915061155d83611600565b9250827fffffffffffffffffffffffffffffffffffffffffffffffffffffffffffffffff038211156115925761159161161c565b5b828201905092915050565b60006115a8826115e0565b9050919050565b60006115ba826115e0565b9050919050565b60008115159050919050565b60008190506115db826118f8565b919050565b600073ffffffffffffffffffffffffffffffffffffffff82169050919050565b6000819050919050565b6000611615826115cd565b9050919050565b7f4e487b7100000000000000000000000000000000000000000000000000000000600052601160045260246000fd5b7f4e487b7100000000000000000000000000000000000000000000000000000000600052602160045260246000fd5b7f526566756e64457363726f773a2062656e65666963696172792063616e206f6e60008201527f6c79207769746864726177207768696c6520636c6f7365640000000000000000602082015250565b7f4f776e61626c653a206e6577206f776e657220697320746865207a65726f206160008201527f6464726573730000000000000000000000000000000000000000000000000000602082015250565b7f416464726573733a20756e61626c6520746f2073656e642076616c75652c207260008201527f6563697069656e74206d61792068617665207265766572746564000000000000602082015250565b7f416464726573733a20696e73756666696369656e742062616c616e6365000000600082015250565b7f526566756e64457363726f773a2063616e206f6e6c79206465706f736974207760008201527f68696c6520616374697665000000000000000000000000000000000000000000602082015250565b7f436f6e646974696f6e616c457363726f773a207061796565206973206e6f742060008201527f616c6c6f77656420746f20776974686472617700000000000000000000000000602082015250565b7f526566756e64457363726f773a2063616e206f6e6c7920636c6f73652077686960008201527f6c65206163746976650000000000000000000000000000000000000000000000602082015250565b7f4f776e61626c653a2063616c6c6572206973206e6f7420746865206f776e6572600082015250565b50565b7f526566756e64457363726f773a2063616e206f6e6c7920656e61626c6520726560008201527f66756e6473207768696c65206163746976650000000000000000000000000000602082015250565b600381106119095761190861164b565b5b50565b6119158161159d565b811461192057600080fd5b50565b61192c816115af565b811461193757600080fd5b5056fea2646970667358221220a023080ab0740fc22fa411883f421bb28c56855f698b3e82c7c3ee2a664a86e564736f6c63430008040033a26469706673582212201b591f5f3c438807730ff879f8a9eeb223b6e1bc479e33c99d79b94785a8e6f164736f6c63430008040033",
  "immutableReferences": {},
  "source": "// SPDX-License-Identifier: MIT\npragma solidity >=0.8.0 <0.9.0;\n\nimport \"./Campaign.sol\";\nimport \"@openzeppelin/contracts/access/Ownable.sol\";\nimport \"@openzeppelin/contracts/utils/escrow/RefundEscrow.sol\";\n// import \"@openzeppelin/contracts/proxy/Clones.sol\";\n\n\ncontract Raise {\n    mapping(address => Campaign) campaignOwners;\n    \n    event CampaignLaunched(address payable campaignContract);\n    \n    struct CampaignData {\n        address payable beneficiary;\n    }\n\n    function createCampaign(uint _target, uint64 _endTime) public {\n        Campaign justCreated = new Campaign(payable(msg.sender), _target, _endTime);\n        emit CampaignLaunched(payable(address(justCreated)));\n    }\n\n    function depositToCampaign(address payable _campaign, address payable _refundee) public payable {\n        Campaign c = Campaign(_campaign);\n        require(c.beforeFinish());\n        c.deposit{value: msg.value}(_refundee);\n    }\n    \n    function finalizeCampaign(address payable _campaign) public {\n        Campaign c = Campaign(_campaign);\n        require(!c.beforeFinish());\n        if(c.targetReached()) {\n            c.close();\n            c.beneficiaryWithdraw();\n        }\n        else{\n            c.enableRefunds();\n        }\n    }\n    \n    function getBalance(address _campaign) public view returns (uint) {\n        return _campaign.balance;\n    } \n    \n    function claimRefund(address _campaign, address payable _withdrawAddress) public {\n        Campaign(_campaign).withdraw(_withdrawAddress);\n    }\n}\n",
  "sourcePath": "/home/drew/Documents/Projects/raise/src/truffleenv/contracts/Raise.sol",
  "compiler": {
    "name": "solc",
    "version": "0.8.4+commit.c7e474f2.Emscripten.clang"
  },
  "schemaVersion": "3.4.1",
  "updatedAt": "2021-05-31T01:15:26.788Z",
  "devdoc": {
    "kind": "dev",
    "methods": {},
    "version": 1
  },
  "userdoc": {
    "kind": "user",
    "methods": {},
    "version": 1
  }
}